{
  "_format": "hh-sol-artifact-1",
  "contractName": "PrivateCrowdfund",
  "sourceName": "contracts/PrivateCrowdfund.sol",
  "abi": [
    {
      "inputs": [
        {
          "internalType": "uint64",
          "name": "_goalMicro",
          "type": "uint64"
        },
        {
          "internalType": "uint64",
          "name": "_durationDays",
          "type": "uint64"
        },
        {
          "internalType": "uint64",
          "name": "_minContributionMicro",
          "type": "uint64"
        },
        {
          "internalType": "uint64",
          "name": "_maxContributionMicro",
          "type": "uint64"
        },
        {
          "internalType": "address",
          "name": "_usdc",
          "type": "address"
        },
        {
          "internalType": "address",
          "name": "_treasury",
          "type": "address"
        }
      ],
      "stateMutability": "nonpayable",
      "type": "constructor"
    },
    {
      "inputs": [],
      "name": "CampaignAlreadyFinalized",
      "type": "error"
    },
    {
      "inputs": [],
      "name": "CampaignExpired",
      "type": "error"
    },
    {
      "inputs": [],
      "name": "InvalidContributionLimits",
      "type": "error"
    },
    {
      "inputs": [],
      "name": "InvalidDeadline",
      "type": "error"
    },
    {
      "inputs": [],
      "name": "InvalidGoal",
      "type": "error"
    },
    {
      "inputs": [],
      "name": "NoContributions",
      "type": "error"
    },
    {
      "inputs": [],
      "name": "NotOwner",
      "type": "error"
    },
    {
      "anonymous": false,
      "inputs": [
        {
          "indexed": false,
          "internalType": "bool",
          "name": "goalMet",
          "type": "bool"
        },
        {
          "indexed": false,
          "internalType": "uint256",
          "name": "timestamp",
          "type": "uint256"
        }
      ],
      "name": "CampaignEnded",
      "type": "event"
    },
    {
      "anonymous": false,
      "inputs": [
        {
          "indexed": true,
          "internalType": "address",
          "name": "contributor",
          "type": "address"
        },
        {
          "indexed": false,
          "internalType": "bool",
          "name": "isFirstTime",
          "type": "bool"
        },
        {
          "indexed": false,
          "internalType": "uint256",
          "name": "timestamp",
          "type": "uint256"
        }
      ],
      "name": "Contributed",
      "type": "event"
    },
    {
      "anonymous": false,
      "inputs": [
        {
          "indexed": false,
          "internalType": "uint64",
          "name": "oldDeadline",
          "type": "uint64"
        },
        {
          "indexed": false,
          "internalType": "uint64",
          "name": "newDeadline",
          "type": "uint64"
        }
      ],
      "name": "DeadlineExtended",
      "type": "event"
    },
    {
      "anonymous": false,
      "inputs": [
        {
          "indexed": false,
          "internalType": "uint64",
          "name": "oldGoal",
          "type": "uint64"
        },
        {
          "indexed": false,
          "internalType": "uint64",
          "name": "newGoal",
          "type": "uint64"
        }
      ],
      "name": "GoalUpdated",
      "type": "event"
    },
    {
      "inputs": [],
      "name": "checkGoalReached",
      "outputs": [
        {
          "internalType": "ebool",
          "name": "",
          "type": "bytes32"
        }
      ],
      "stateMutability": "nonpayable",
      "type": "function"
    },
    {
      "inputs": [
        {
          "internalType": "uint256",
          "name": "amount6",
          "type": "uint256"
        },
        {
          "internalType": "externalEuint64",
          "name": "encHandle",
          "type": "bytes32"
        },
        {
          "internalType": "bytes",
          "name": "inputProof",
          "type": "bytes"
        }
      ],
      "name": "contributeUSDC",
      "type": "function",
      "stateMutability": "nonpayable",
      "outputs": []
    },
    {
      "inputs": [],
      "name": "contributorCount",
      "outputs": [
        {
          "internalType": "uint64",
          "name": "",
          "type": "uint64"
        }
      ],
      "stateMutability": "view",
      "type": "function"
    },
    {
      "inputs": [],
      "name": "deadline",
      "outputs": [
        {
          "internalType": "uint64",
          "name": "",
          "type": "uint64"
        }
      ],
      "stateMutability": "view",
      "type": "function"
    },
    {
      "inputs": [
        {
          "internalType": "uint64",
          "name": "additionalDays",
          "type": "uint64"
        }
      ],
      "name": "extendDeadline",
      "outputs": [],
      "stateMutability": "nonpayable",
      "type": "function"
    },
    {
      "inputs": [],
      "name": "finalizeCampaign",
      "outputs": [],
      "stateMutability": "nonpayable",
      "type": "function"
    },
    {
      "inputs": [],
      "name": "fundingGoal",
      "outputs": [
        {
          "internalType": "uint64",
          "name": "",
          "type": "uint64"
        }
      ],
      "stateMutability": "view",
      "type": "function"
    },
    {
      "inputs": [
        {
          "internalType": "address",
          "name": "contributor",
          "type": "address"
        }
      ],
      "name": "getContributionAmount",
      "outputs": [
        {
          "internalType": "euint64",
          "name": "",
          "type": "bytes32"
        }
      ],
      "stateMutability": "view",
      "type": "function"
    },
    {
      "inputs": [],
      "name": "getLastGoalStatus",
      "outputs": [
        {
          "internalType": "ebool",
          "name": "",
          "type": "bytes32"
        }
      ],
      "stateMutability": "view",
      "type": "function"
    },
    {
      "inputs": [],
      "name": "getTimeRemaining",
      "outputs": [
        {
          "internalType": "uint64",
          "name": "",
          "type": "uint64"
        }
      ],
      "stateMutability": "view",
      "type": "function"
    },
    {
      "inputs": [],
      "name": "getTotalRaised",
      "outputs": [
        {
          "internalType": "euint64",
          "name": "",
          "type": "bytes32"
        }
      ],
      "stateMutability": "view",
      "type": "function"
    },
    {
      "inputs": [],
      "name": "grantPublicDecrypt",
      "outputs": [],
      "stateMutability": "nonpayable",
      "type": "function"
    },
    {
      "inputs": [
        {
          "internalType": "address",
          "name": "user",
          "type": "address"
        }
      ],
      "name": "hasContributed",
      "outputs": [
        {
          "internalType": "bool",
          "name": "",
          "type": "bool"
        }
      ],
      "stateMutability": "view",
      "type": "function"
    },
    {
      "inputs": [],
      "name": "isActive",
      "outputs": [
        {
          "internalType": "bool",
          "name": "",
          "type": "bool"
        }
      ],
      "stateMutability": "view",
      "type": "function"
    },
    {
      "inputs": [],
      "name": "isFinalized",
      "outputs": [
        {
          "internalType": "bool",
          "name": "",
          "type": "bool"
        }
      ],
      "stateMutability": "view",
      "type": "function"
    },
    {
      "inputs": [],
      "name": "isInitialized",
      "outputs": [
        {
          "internalType": "bool",
          "name": "",
          "type": "bool"
        }
      ],
      "stateMutability": "view",
      "type": "function"
    },
    {
      "inputs": [],
      "name": "maxContribution",
      "outputs": [
        {
          "internalType": "uint64",
          "name": "",
          "type": "uint64"
        }
      ],
      "stateMutability": "view",
      "type": "function"
    },
    {
      "inputs": [],
      "name": "minContribution",
      "outputs": [
        {
          "internalType": "uint64",
          "name": "",
          "type": "uint64"
        }
      ],
      "stateMutability": "view",
      "type": "function"
    },
    {
      "inputs": [],
      "name": "owner",
      "outputs": [
        {
          "internalType": "address",
          "name": "",
          "type": "address"
        }
      ],
      "stateMutability": "view",
      "type": "function"
    },
    {
      "inputs": [],
      "name": "treasury",
      "outputs": [
        {
          "internalType": "address",
          "name": "",
          "type": "address"
        }
      ],
      "stateMutability": "view",
      "type": "function"
    },
    {
      "inputs": [
        {
          "internalType": "uint64",
          "name": "newGoalMicro",
          "type": "uint64"
        }
      ],
      "name": "updateGoal",
      "outputs": [],
      "stateMutability": "nonpayable",
      "type": "function"
    },
    {
      "inputs": [],
      "name": "usdc",
      "outputs": [
        {
          "internalType": "contract IERC20",
          "name": "",
          "type": "address"
        }
      ],
      "stateMutability": "view",
      "type": "function"
    },
    {
      "inputs": [],
      "name": "usdcDecimals",
      "outputs": [
        {
          "internalType": "uint8",
          "name": "",
          "type": "uint8"
        }
      ],
      "stateMutability": "pure",
      "type": "function"
    }
  ],
  "bytecode": "0x60e060405234801562000010575f80fd5b5060405162001aae38038062001aae8339810160408190526200003391620003fa565b620001af620000d3604080516080810182525f808252602082018190529181018290526060810191909152506040805160808101825273687820221192c5b662b25367f70076a37bc79b6c815273848b0066793bcc60346da1f49049357399b8d5956020820152731364cbbf2cdf5032c47d8226a6f6fbd2afcdacac9181019190915273bc91f3dad1a5f19f8390c400196e58073b6a0bc4606082015290565b80517fed8d60e34876f751cc8b014c560745351147d9de11b9347c854e881b128ea60080546001600160a01b03199081166001600160a01b039384161790915560208301517fed8d60e34876f751cc8b014c560745351147d9de11b9347c854e881b128ea6018054831691841691909117905560408301517fed8d60e34876f751cc8b014c560745351147d9de11b9347c854e881b128ea6028054831691841691909117905560608301517fed8d60e34876f751cc8b014c560745351147d9de11b9347c854e881b128ea6038054909216921691909117905550565b7f5ea69329017273582817d320489fbd94f775580e90c092699ca6f3d12fdf7d0080546001600160a01b03191673a02cda4ca3a71d7c46997716f4283aa851c28812179055856001600160401b03165f036200021e57604051639b60eb4d60e01b815260040160405180910390fd5b846001600160401b03165f036200024857604051631da7447960e21b815260040160405180910390fd5b6001600160401b0384161580620002705750826001600160401b0316846001600160401b0316115b156200028f5760405163dcac5ed360e01b815260040160405180910390fd5b6001600160a01b03821615801590620002b057506001600160a01b03811615155b620002f55760405162461bcd60e51b8152602060048201526011602482015270496e76616c69642061646472657373657360781b604482015260640160405180910390fd5b336080526001600160a01b0382811660a052811660c0525f80546001600160401b0319166001600160401b0388161790556200033585620151806200048b565b6200034a906001600160401b031642620004b9565b5f805477ffffffffffffffff0000000000000000ffffffffffffffff16600160c01b6001600160401b0393841602600160401b600160801b03191617680100000000000000009683169690960295909517600160801b600160c01b031916600160801b94909116939093029290921790925550620004d592505050565b80516001600160401b0381168114620003de575f80fd5b919050565b80516001600160a01b0381168114620003de575f80fd5b5f805f805f8060c0878903121562000410575f80fd5b6200041b87620003c7565b95506200042b60208801620003c7565b94506200043b60408801620003c7565b93506200044b60608801620003c7565b92506200045b60808801620003e3565b91506200046b60a08801620003e3565b90509295509295509295565b634e487b7160e01b5f52601160045260245ffd5b6001600160401b03818116838216028082169190828114620004b157620004b162000477565b505092915050565b80820180821115620004cf57620004cf62000477565b92915050565b60805160a05160c051611576620005385f395f81816102b2015261086d01525f8181610273015261089e01525f818161033a015281816103c30152818161054401528181610c4001528181610cb301528181610d9c0152610e4e01526115765ff3fe608060405234801561000f575f80fd5b5060043610610184575f3560e01c806363fab56f116100dd5780639f55029311610088578063aaffadf311610063578063aaffadf314610374578063dac6270d1461038e578063ecfd892814610396575f80fd5b80639f5502931461035c578063a1211bc014610364578063a944310d1461036c575f80fd5b80638d3d6576116100b85780638d3d6576146103095780638d4e4083146103235780638da5cb5b14610335575f80fd5b806363fab56f146102d45780637a3a0e84146102e75780637bf42165146102fa575f80fd5b806322f3e2d41161013d578063392e53cd11610118578063392e53cd1461025c5780633e413bee1461026e57806361d027b3146102ad575f80fd5b806322f3e2d41461020e57806329dcb0cf1461021657806332c1f24514610249575f80fd5b80630c57f7991161016d5780630c57f799146101b85780630c68e3fc146101c0578063205b1946146101d3575f80fd5b806301cb3b201461018857806308805f75146101a3575b5f80fd5b6101906103aa565b6040519081526020015b60405180910390f35b6101b66101b136600461133e565b6103b8565b005b600254610190565b6101b66101ce36600461133e565b610539565b6101fe6101e1366004611365565b6001600160a01b03165f9081526003602052604090205460ff1690565b604051901515815260200161019a565b6101fe610673565b5f5461023090600160c01b900467ffffffffffffffff1681565b60405167ffffffffffffffff909116815260200161019a565b610190610257366004611365565b6106a2565b600554600160401b900460ff166101fe565b6102957f000000000000000000000000000000000000000000000000000000000000000081565b6040516001600160a01b03909116815260200161019a565b6102957f000000000000000000000000000000000000000000000000000000000000000081565b6101b66102e236600461138b565b610724565b5f546102309067ffffffffffffffff1681565b6040516006815260200161019a565b5f5461023090600160801b900467ffffffffffffffff1681565b600554600160481b900460ff166101fe565b6102957f000000000000000000000000000000000000000000000000000000000000000081565b610190610ace565b6101b6610b00565b6101b6610c2b565b5f5461023090600160401b900467ffffffffffffffff1681565b610230610cfd565b6005546102309067ffffffffffffffff1681565b5f6103b3610d3a565b905090565b336001600160a01b037f00000000000000000000000000000000000000000000000000000000000000001614610401576040516330cd747160e01b815260040160405180910390fd5b600554600160481b900460ff16156104605760405162461bcd60e51b815260206004820152601a60248201527f43616d706169676e20616c72656164792066696e616c697a656400000000000060448201526064015b60405180910390fd5b8067ffffffffffffffff165f0361048a57604051631da7447960e21b815260040160405180910390fd5b5f54600160c01b900467ffffffffffffffff166104aa8262015180611418565b5f80546018906104cc908490600160c01b900467ffffffffffffffff16611444565b82546101009290920a67ffffffffffffffff8181021990931691831602179091555f54604080518584168152600160c01b90920490921660208201527fd8bbfbaf47dac37d63ff939a78581fbf254cb85c49f02ae69fe5afb3bdb4b6eb9250015b60405180910390a15050565b336001600160a01b037f00000000000000000000000000000000000000000000000000000000000000001614610582576040516330cd747160e01b815260040160405180910390fd5b5f54600160c01b900467ffffffffffffffff1642106105b457604051638320b48360e01b815260040160405180910390fd5b600554600160481b900460ff16156105df5760405163768397d560e11b815260040160405180910390fd5b8067ffffffffffffffff165f0361060957604051639b60eb4d60e01b815260040160405180910390fd5b5f805467ffffffffffffffff83811667ffffffffffffffff1983161790925516610631610d3a565b506040805167ffffffffffffffff8084168252841660208201527f25b7b2a76d5bfe5849fac6bddc8770921328432ab46e9d2c839409a5c9ec6f46910161052d565b5f8054600160c01b900467ffffffffffffffff16421080156103b3575050600554600160481b900460ff161590565b6001600160a01b0381165f9081526003602052604081205460ff166107095760405162461bcd60e51b815260206004820152601b60248201527f4164647265737320686173206e6f7420636f6e747269627574656400000000006044820152606401610457565b506001600160a01b03165f9081526004602052604090205490565b5f54600160c01b900467ffffffffffffffff16421061075657604051638320b48360e01b815260040160405180910390fd5b600554600160481b900460ff16156107815760405163768397d560e11b815260040160405180910390fd5b5f84116107d05760405162461bcd60e51b815260206004820152601560248201527f416d6f756e742063616e6e6f74206265207a65726f00000000000000000000006044820152606401610457565b5f54600160401b900467ffffffffffffffff16841080159061080457505f54600160801b900467ffffffffffffffff168411155b6108505760405162461bcd60e51b815260206004820152601560248201527f416d6f756e74206f75747369646520626f756e647300000000000000000000006044820152606401610457565b6040516323b872dd60e01b81523360048201526001600160a01b037f000000000000000000000000000000000000000000000000000000000000000081166024830152604482018690525f917f0000000000000000000000000000000000000000000000000000000000000000909116906323b872dd906064016020604051808303815f875af11580156108e6573d5f803e3d5ffd5b505050506040513d601f19601f8201168201806040525081019061090a919061146c565b9050806109595760405162461bcd60e51b815260206004820152601460248201527f55534443207472616e73666572206661696c65640000000000000000000000006044820152606401610457565b5f6109998585858080601f0160208091040260200160405190810160405280939291908181526020018383808284375f92019190915250610df792505050565b600554909150600160401b900460ff166109cf5760018190556005805468ff00000000000000001916600160401b1790556109df565b6109db60015482610e0b565b6001555b335f9081526003602052604090205460ff16158015610a4e57335f9081526003602090815260408083208054600160ff19909116811790915560049092529091208390556005805467ffffffffffffffff19811667ffffffffffffffff91821690930116919091179055610a77565b335f90815260046020526040902054610a679083610e0b565b335f908152600460205260409020555b610a8082610e39565b60408051821515815242602082015233917f33855cd4bc4d0788dc8806c7c4d25583955fde98509b13fcb10a500ff172260c910160405180910390a2610ac4610d3a565b5050505050505050565b6005545f90600160401b900460ff16610af9576040516233638960e31b815260040160405180910390fd5b5060015490565b5f54600160c01b900467ffffffffffffffff16421015610b625760405162461bcd60e51b815260206004820152601560248201527f43616d706169676e207374696c6c2061637469766500000000000000000000006044820152606401610457565b600554600160481b900460ff1615610bbc5760405162461bcd60e51b815260206004820152601a60248201527f43616d706169676e20616c72656164792066696e616c697a65640000000000006044820152606401610457565b6005805469ff0000000000000000001916600160481b1790819055604051600160401b90910460ff16907fe9c59136a3aba7d113afca9ca158690a3f73310c2701702f7c1db18b4969fae190610c2090839042909115158252602082015260400190565b60405180910390a150565b610c3760025430610eb1565b50610c646002547f0000000000000000000000000000000000000000000000000000000000000000610eb1565b50610c8b600254610c8673a02cda4ca3a71d7c46997716f4283aa851c2881290565b610eb1565b50600554600160401b900460ff1615610cfb57610caa60015430610eb1565b50610cd76001547f0000000000000000000000000000000000000000000000000000000000000000610eb1565b50610cf9600154610c8673a02cda4ca3a71d7c46997716f4283aa851c2881290565b505b565b5f8054600160c01b900467ffffffffffffffff164210610d1c57505f90565b5f546103b3904290600160c01b900467ffffffffffffffff1661148b565b6005545f90600160401b900460ff16610d5e57610d565f610ec3565b600255610d87565b5f8054610d749067ffffffffffffffff16610ee4565b9050610d8260015482610efa565b600255505b610d9360025430610eb1565b50610dc06002547f0000000000000000000000000000000000000000000000000000000000000000610eb1565b50610dcd60025433610eb1565b50610def600254610c8673a02cda4ca3a71d7c46997716f4283aa851c2881290565b505060025490565b5f610e0483836005610f28565b9392505050565b5f82610e1d57610e1a5f610ee4565b92505b81610e2e57610e2b5f610ee4565b91505b610e0483835f611048565b610e4560015430610eb1565b50610e726001547f0000000000000000000000000000000000000000000000000000000000000000610eb1565b50610e94600154610c8673a02cda4ca3a71d7c46997716f4283aa851c2881290565b50335f81815260046020526040902054610ead91610eb1565b5050565b5f610ebc8383611143565b5090919050565b5f610ede82610ed2575f610ed5565b60015b60ff165f6111cc565b92915050565b5f610ede8267ffffffffffffffff1660056111cc565b5f82610f0c57610f095f610ee4565b92505b81610f1d57610f1a5f610ee4565b91505b610e0483835f611289565b7fed8d60e34876f751cc8b014c560745351147d9de11b9347c854e881b128ea6015460405163196d0b9b60e01b81525f917fed8d60e34876f751cc8b014c560745351147d9de11b9347c854e881b128ea600916001600160a01b039091169063196d0b9b90610fa19088903390899089906004016114cc565b6020604051808303815f875af1158015610fbd573d5f803e3d5ffd5b505050506040513d601f19601f82011682018060405250810190610fe1919061153e565b8154604051630f8e573b60e21b8152600481018390523360248201529193506001600160a01b031690633e395cec906044015f604051808303815f87803b15801561102a575f80fd5b505af115801561103c573d5f803e3d5ffd5b50505050509392505050565b5f80821561105b5750600160f81b61105e565b505f5b7fed8d60e34876f751cc8b014c560745351147d9de11b9347c854e881b128ea6015460405163022f65e760e31b815260048101879052602481018690527fff00000000000000000000000000000000000000000000000000000000000000831660448201527fed8d60e34876f751cc8b014c560745351147d9de11b9347c854e881b128ea600916001600160a01b03169063117b2f38906064015b6020604051808303815f875af1158015611115573d5f803e3d5ffd5b505050506040513d601f19601f82011682018060405250810190611139919061153e565b9695505050505050565b5f7fed8d60e34876f751cc8b014c560745351147d9de11b9347c854e881b128ea6008054604051635ca4b5b160e11b8152600481018690526001600160a01b03858116602483015292935091169063b9496b62906044015f604051808303815f87803b1580156111b1575f80fd5b505af11580156111c3573d5f803e3d5ffd5b50505050505050565b7fed8d60e34876f751cc8b014c560745351147d9de11b9347c854e881b128ea60154604051639cd07acb60e01b81525f917fed8d60e34876f751cc8b014c560745351147d9de11b9347c854e881b128ea600916001600160a01b0390911690639cd07acb906112419087908790600401611555565b6020604051808303815f875af115801561125d573d5f803e3d5ffd5b505050506040513d601f19601f82011682018060405250810190611281919061153e565b949350505050565b5f80821561129c5750600160f81b61129f565b505f5b7fed8d60e34876f751cc8b014c560745351147d9de11b9347c854e881b128ea60154604051631391547f60e01b815260048101879052602481018690527fff00000000000000000000000000000000000000000000000000000000000000831660448201527fed8d60e34876f751cc8b014c560745351147d9de11b9347c854e881b128ea600916001600160a01b031690631391547f906064016110f9565b5f6020828403121561134e575f80fd5b813567ffffffffffffffff81168114610e04575f80fd5b5f60208284031215611375575f80fd5b81356001600160a01b0381168114610e04575f80fd5b5f805f806060858703121561139e575f80fd5b8435935060208501359250604085013567ffffffffffffffff808211156113c3575f80fd5b818701915087601f8301126113d6575f80fd5b8135818111156113e4575f80fd5b8860208285010111156113f5575f80fd5b95989497505060200194505050565b634e487b7160e01b5f52601160045260245ffd5b67ffffffffffffffff81811683821602808216919082811461143c5761143c611404565b505092915050565b67ffffffffffffffff81811683821601908082111561146557611465611404565b5092915050565b5f6020828403121561147c575f80fd5b81518015158114610e04575f80fd5b67ffffffffffffffff82811682821603908082111561146557611465611404565b605481106114c857634e487b7160e01b5f52602160045260245ffd5b9052565b8481525f60206001600160a01b03861660208401526080604084015284518060808501525f5b8181101561150e5786810183015185820160a0015282016114f2565b505f60a0828601015260a0601f19601f8301168501019250505061153560608301846114ac565b95945050505050565b5f6020828403121561154e575f80fd5b5051919050565b82815260408101610e0460208301846114ac56fea164736f6c6343000818000a",
  "linkReferences": {},
  "deployedLinkReferences": {}
}